:100000006F10E01800000000F2010000F60100008F
:1000100000000000000000000000000000000000E0
:1000200000000000000000000000000000000000D0
:100030005C110000000000005E11000000000000E4
:1000400060110000621100006411000066110000E0
:10005000EA0C00006A1100006C1100006E11000033
:1000600070110000721100004410000076110000B1
:10007000781100007A1100007C1100007E11000050
:100080001010000082110000841100008611000091
:10009000881100008A1100007A0F000000000000A3
:1000A000511126C022C206C4828282441244A24058
:1000B000310182802A86014593F6150091C232955E
:1000C00085810606F5F9828000000000634E050276
:1000D00063C305042E86AA857D5515C285466378BF
:1000E000B6006356C00006068606E36CB6FE014500
:1000F00063E4C500918D558D85820582F5FA828075
:100100008682C93F2E8582823305A04063D70500D1
:10011000B305B040C1B7B305B0408682653F330533
:10012000A0408282868263C70500634905005D376F
:100130002E858282B305B040E35B05FE3305A04007
:10014000513F3305B040828200003D432A876373EC
:10015000C3029377F700BDEFADE5937606FF3D8AC6
:10016000BA960CC34CC30CC74CC74107E36BD7FE10
:1001700011E28280B306C3408A0697020000969679
:100180006780A6002307B700A306B7002306B700C1
:10019000A305B7002305B700A304B7002304B700E5
:1001A000A303B7002303B700A302B7002302B700DD
:1001B000A301B7002301B700A300B7002300B700D5
:1001C000828093F5F50F93968500D58D9396050162
:1001D000D58D61B793962700970200009696868288
:1001E000E78086FA9680C1171D8F3E96E374C3F8A8
:1001F000A5B77300203001A0EFF29FEA51118545A9
:10020000414502C002C202C4EF10204E8D477C80DF
:10021000C1473EC48A858D47371501403EC2EF1065
:10022000801B310159B5EFF2BFE731112E84AA844A
:100230008545054502C002C202C402C6231801005A
:10024000EF10804C2C003705004064866084231733
:10025000010023150100EF10004D854537050040D2
:10026000EF10605E930760027C8085475C810A85A1
:1002700085473EC2EF10C030854537050040EF107E
:10028000C05E0546854537050040EF1020580546FD
:10029000854537050040EF106057510139B5EFF241
:1002A0003FE01165111185451305050202C002C228
:1002B00002C402C602C802CA02CCEF100043930770
:1002C00000027C80371401408D473EC28A85E14799
:1002D000130504403EC4EF100010930700047C8017
:1002E0008A859147130504403EC4EF10C00EF167A4
:1002F00037440140938707203EC66C00B7070C00C7
:10030000130504803ECA02C8231C0100EF10A0564A
:1003100005461305048093055052EF10E06337053E
:100320000240854513058505EF10E0068545130558
:100330000480EF10006171018DBBEFF27FD63704AE
:100340000240130584058145EF10E0041305840580
:10035000A945EF108005854513058405EF10A0031E
:10036000A9B3EFF2FFD3130141FD1306C00281458B
:100370000A85E13B85450545EF10403537040240CD
:1003800013058405EF009074B747014093874780B9
:100390003EC09387818C3EC2A9473EC693070008A2
:1003A0003ECA8A858D67130584053ED202C402C801
:1003B00002CC02CE02D002D4EF00707A1301C10247
:1003C000EDB1EFF2FFCD85451145EF1000328545C7
:1003D0004145EF108031854513050002EF10E030F4
:1003E000854513050020EF10403085450545EF1089
:1003F000C02F096513050580EF10E0227DB1EFF2F3
:100400003FCA130141FD2AC005652E8413051581DD
:100410008545B28402C802CA02CC02CE02D002D202
:1004200002D402C202C423160100EF10002C3705CB
:100430001600854513050504EF10E00713070004B7
:10044000F88041473ACC0C080D47371501403ACAAD
:10045000EF00707801469305000437150140EF1056
:10046000E00482476082373401404C00130504C029
:100470007C842315010023130100EF10C02AC167FB
:10048000938707073ECEB707080089073ED26C085E
:1004900093070010130504C03ED423119102EF10FE
:1004A000602D0546130504C08545EF102036130561
:1004B00004C08545EF102034130504C0A145EF109A
:1004C000A037130504C08545EF106035814513053D
:1004D00004C0EF10C0301301C102C1BE214737363E
:1004E0000140C1451303C002930706C0962B858ABD
:1004F000E5DE93168501E18663D5060223AA67022D
:10050000835706C17D170605C207C183F99BC20741
:10051000C1832318F6C01377F70F1375F50F69F72A
:100520008280CCDBF1BFEFF2BFB7B7160140930773
:100530000004DCCA9C42370700F87D17F98F9CC283
:1005400089672A8493870780739007303736014084
:10055000835786C137070008B304B500C207C183BB
:10056000DD9BC207C183231CF6C0232A06C2835722
:1005700086C193E78700231CF6C085472312F6C285
:10058000835706C093E717002310F6C09C42D98F0B
:100590009CC263109406B736014003D706C1058B91
:1005A0006DDF03D706C1B717014042074183799B2E
:1005B000420741832398E6C003D706C04207418320
:1005C000799B420741832390E6C023AA06C20547D0
:1005D0002392E6C213070004D8CB9843B70600F86D
:1005E000FD16758F98C38967938787887390073046
:1005F0006DBC08200504DD3569BFEFF27FAA938743
:1006000001931387A70523800700A3800700238198
:1006100007008D07E399E7FE9305A0051385019375
:10062000193761B4EFF2DFA731112AC2328463882F
:10063000050CAE849305B00236C8693C9377F50F7C
:100640003EC09307F00F33859740A285A5342185DE
:100650009377F50F0245930550FD3EC6A13C124726
:100660003A95131715002A9706071377F70FBA85DF
:1006700026853AC481349307F00F21853385A7403E
:10068000A2850D3C2247A68521859304F00F1373A4
:10069000F50F3385E4401AC2313C2185A2853385AC
:1006A000A440093C8247218591451387F7FF1377C2
:1006B000F70F1375F50FB247C24663ECE500896585
:1006C0000A079385C5062E97184312430287228591
:1006D0001A8480A288B2BCA25101C1BA22873E848A
:1006E000AA873A85FDB722871A853E84BA87D5B78F
:1006F00022872A843E85DDBF3E859A87D9BFB2878F
:100700003285C1BF1377F50FE14663E8E604B7070A
:1007100000201946938747006365E600AA9788235F
:100720008280130697FF1376F60F954563E5C500A3
:10073000898FC82782804D171377F70F63EAE5008A
:10074000AA9703C547FF3305A04042054185828033
:100750003385A640AA978823FDB701458280137789
:10076000F50FE14763E9E704B7070020994693874F
:10077000470063E7E6003385A640AA978823828076
:10078000930697FF93F6F60F1546636AD600AA976D
:1007900003C5A7FF3305A0404205418582804D1760
:1007A0001377F70F6365E600898FA82BE5B7AA9743
:1007B00003C5E7FE828001458280EFF27F8E2A84A6
:1007C000AA8761115D47A943D142E14579430546B6
:1007D0001305F00F9306F7FFE206E18694A3D4B366
:1007E000B8A7F4B79306E7FF7117D4ABA3807700DF
:1007F00023835700ACB723886700CCBBD0A3A38466
:100800000700F0A7B0BB90AF1377F70FE507E3132E
:10081000A7FC1307640983070400830414003AC289
:100820003E853EC02D3FA685EFF0DF889305000F83
:10083000EFF0DF89824728A015043E85E135A685C3
:10084000EFF05F879305000FEFF05F881247230FEB
:10085000A4FEE31287FC21016FF03F851307A0057A
:1008600058A1130760F958B11307C003854778A151
:10087000130740FB1CA138B55CB9130780FC7CA9A9
:100880009307800258A57CB9130740061CADA94701
:10089000A300050023010500A3010500A303050033
:1008A00023040500A30405002305050058B523070C
:1008B0000500A307050023080500A3080500230978
:1008C0000500A3090500230A05001CBD230D050032
:1008D0003CBD8280EFF2CFFC9387818A83865701EB
:1008E000130141FA36C48386770182C682C836C6B0
:1008F000D42382CA82CC36C88386570013840181F0
:1009000036CA8386C70036CC8386370136CE8386C7
:10091000A70136D08386670036D28386D70036D4C7
:10092000838647018387B70136D63ED89387418DAA
:100930003EC09387818A3EDA9D67938707533EC204
:10094000D257E40003870700630D071203872700CF
:100950008305240083063400BEC0998D03873700C9
:100960002E85998E36DEEFF0EFF4F2562ADCB6854E
:100970003685EFF02FF4625786473A9563000510ED
:1009800088C08C4012453EDCEFF04FF4E25788C03F
:100990009D071387D18B9104E316F7FAA24763886A
:1009A000070E83051400B247B385B7402E85EFF0DC
:1009B0006FF0630B050CAACCE6451245EFF00FF182
:1009C000AACC8247424736434646D64698A3D245EC
:1009D0006647B304C3001A85B694BA949AC43ADE43
:1009E000B6C0B2C2EFF00FED1646E2452ADC328502
:1009F000EFF04FEC8646E257F2451504AA9736858C
:100A00003EDCEFF02FEB7257E2578255AA973A85FA
:100A10003EDCEFF02FEAE257A6853E95EFF00FEBB4
:100A200026438247925588B31A85EFF0AFE8164601
:100A3000A2552ADC3285EFF0EFE78646E257B25541
:100A4000AA9736853EDCEFF0EFE67257E257C255C3
:100A5000AA973A853EDCEFF0EFE5E257A6853E9592
:100A6000EFF0CFE68247A8A38D073EC09387618A47
:100A7000E39887EC1301C1056FF02FE3054798C099
:100A800009B723A0040029B78547BECC35B782CC6F
:100A90000DBFEFF2EFE01384418D81449387019302
:100AA00030200C300820B38697008D04A53E130734
:100AB000A0050D0493870193E394E4FE6FF0EFDE4D
:100AC000B7160240DC4241771307F77FF98FDCC28B
:100AD000B727014023A6074223A8074203A7874060
:100AE000B7060E008506558F23A4E74003A787406D
:100AF000B72601401367870023A4E74003A7864079
:100B0000218B6DFF03A786401367470023A4E640AF
:100B10003727014083278740918BEDFF82800000BB
:100B2000EFF20FD8111189672A842EC0B28236CC19
:100B30009384078073900430B7F600E09446010078
:100B400013F6360006063106970500002E96E700DC
:100B50001600010001000100010093961200969614
:100B6000094337250140B316D3001305054014C9C6
:100B7000232A55028946054693F5F20F592D8967B8
:100B8000938787887390073002470C40BD46131641
:100B90002700B396C60093C6F6FFED8E0943A14524
:100BA000B395C5003313C300D58DB366D3001306C8
:100BB000070136C885463397E6003396C600B70668
:100BC0004E003AC22EC632C002C40145B7F200E060
:100BD0003727014085063ECAA247624663C5C70063
:100BE00071016FF08FCC7390043003A38200010079
:100BF0001376330006063106970500002E96E700AF
:100C0000160001000100010001002324D7403246F4
:100C1000D24710C0024610C8739007300326074021
:100C200093030740098A7DDA424610C0124610C875
:100C300003A3C3047390043003A68200B2870100AB
:100C400013F6370006063106970500002E96E700DA
:100C50001600010001000100010023A4D3000100DF
:100C60000100B2471CC082471CC8D24773900730AE
:100C70000326074093030740098A7DDAC2471CC058
:100C800092471CC803A6C30432937390043083A711
:100C90008200010013F637000606310697050000B2
:100CA0002E96E7001600010001000100010023A4B8
:100CB000D3000100010001000100B2471CC08247BF
:100CC0001CC8D2477390073003260740098A6DDE9F
:100CD000C2471CC092471CC80326C744A247329390
:100CE00085071A953EC4CDBD000061113EC0B7F71F
:100CF00000E03AC2984723A6E180B70701407D573C
:100D000023AAE7401247824721017300203095470C
:100D100063E3A706EFF2CFB88967938707080A0550
:100D20003E951C41894682870D468945371501400D
:100D30001305054029A00946914537150140CD33DB
:100D400042058567938717FA41813335F5001345CE
:100D500015006FF08FB50146894537150140130521
:100D60000580F1BF05468545CDBF1D4691457DBF38
:100D700011468D4565BF01458280EFF26FB251117A
:100D80000545EF00807F9D26EF00F046EFF0CFC6CF
:100D9000EFF02FE33533B1659385F5B72545EFF0D7
:100DA0008FC8854537050040EF007023EFF06FDBFB
:100DB000EFF0EFCE374501400546930500041305DB
:100DC0000580EF00D03C13850181EFF01F9F138554
:100DD000818A6934014681451305A003EFF02FE2B3
:100DE00022C437050200E12331C105468945371584
:100DF00001406D2D37050200D123EFF00FD493870A
:100E0000818C982313371700A384E18098339307CC
:100E1000F00F6318F7003725000013058509EF1060
:100E2000A0220146894537150140492583C78180A5
:100E3000138781803AC293F6870081CEDD9B1CA385
:100E400083C7418C99E7A2471387818A5C23850772
:100E50005CA392479C2313F7070125CB1247BD9B48
:100E600001451CA36D35B7070020938707003704A1
:100E700000203EC09384418C130484043DCD02477E
:100E800085479CA0BD471CA3D9471CA0824784234B
:100E9000830704003E853EC0EFF07F8CA247A68505
:100EA0001384818AEFF00FA19305000FEFF00FA2DA
:100EB000824728A03E85EFF0FF84A685EFF08F9F44
:100EC0009305000FEFF08FA028B092479C2313F7F3
:100ED000170005C31247F99B1CA383C79180D9EB68
:100EE000EFF05F9F7D369305A00513850193EFF02A
:100EF0008FE30545EF007033EDB50545093D01C9A8
:100F0000024785479CA0BD471CA3C947BDBF0945F3
:100F1000FD3B01C9024785479CA0BD471CA3B947BB
:100F2000ADB70D45ED3301C9024785479CA0BD47CC
:100F30001CA3A94799BF1145D93B01C90247854761
:100F40009CA0BD471CA3994789B71545C93301C962
:100F5000024785479CA0BD471CA389473DB7082091
:100F600023800400E14505051375F50FEFF04F9957
:100F700008A029BFEFF06FE8ADBF511185453705D7
:100F8000004022C426C2EF00D00C3DC90547B70778
:100F90000020A384E704B70700209387C704844395
:100FA0008D45850484C383C7818026851384818011
:100FB0003EC0EFF0EF942A87824721C993E71700DC
:100FC0001CA0A94526853AC0EFF08F93024709E59A
:100FD0001C2093E787001CA009E71C2093E707016A
:100FE0001CA09305401F2685EFF08F9109E51C207A
:100FF00093E747001CA0854537050040EF00F00649
:101000002244924431017300203093E737004DBFF2
:10101000711122C0374401409305505213050480DA
:10102000EF00B01901CD13050480EF00F017B707EA
:101030000020A385A70005472389E18C0244110104
:101040007300203037050200B52E19C50547370556
:1010500002002389E18CA52E73002030B7170240CF
:101060009843B706FFFC1367170098C3D843758FE2
:10107000D8C39843B706F7FEFD16758F98C39843FB
:10108000B706FCFFFD16758F98C3D44341777D17D3
:10109000F98ED4C3B7069F0094C7B726024090428A
:1010A000719A90C290421366160090C2D443D4C382
:1010B000D443758FD8C3D843B7060001D8C398432B
:1010C000558F98C3984393166700E3DD06FED84317
:1010D000B7160240719BD8C3D84313672700D8C303
:1010E0002147DC42B18BE39EE7FE8280EFE25FFBAB
:1010F000371702405C43370400209146B18B13043C
:10110000C4016385D700A1466382D704B7376E0157
:10111000938707601CC0B7160240DC4208409183E9
:1011200013F7F700B70700209387C700BA978C23FF
:10113000DC4293F5F50F93F707083357B50081E7C5
:10114000EFE05FF92A8718C06FE03FF65C43B7779E
:10115000DC02938707C07DBF01A001A001A001A010
:1011600001A001A001A001A001A001A001A001A077
:1011700001A001A001A001A001A001A001A001A067
:1011800001A001A001A001A001A001A001A097F170
:10119000FF1F9381A16B138181FB171500001305BD
:1011A000A5F097F5FF1F9385E5E517F6FF1F1306DA
:1011B000E6E963FAC5008322050023A05500110566
:1011C0009105E3EAC5FE17F5FF1F130525E8938592
:1011D00041996377B500232005001105E36DB5FE45
:1011E00093020008739002308D427390428097F210
:1011F000FFFF938222E193E2320073905230EFF0CE
:10120000FFE597020000938282B773901234730057
:101210002030A54763F8B704138765FF93171700BD
:101220008322C500BA971D433313F3001343F3FF22
:1012300033735300B397F600B3E767005CC5994773
:1012400063E3C7047D16931726003E965859FD4761
:10125000B397C70093C7F7FFF98FB395C500DD8D2E
:101260004CD982809397150003230501AE971D4743
:101270003317F7001347F7FF33776700B397F6008C
:101280005D8F18C96DBFB14763E2C702651693173A
:1012900026003E961859FD47B397C70093C7F7FF3E
:1012A000F98FB395C500DD8D0CD982804D161317CB
:1012B000260054553A96FD47B397C70093C7F7FFEA
:1012C000F58FB395C500DD8D4CD582801C414167FB
:1012D0007917F98F1CC12320050023220500232440
:1012E0000500B70702402326050013878700631710
:1012F000E500D8431367F700D8C382801387C7017E
:101300006316E500D8431367070FFDB7138707037C
:101310006318E500D8438566938606F0558FE9BFCC
:10132000138747046315E500D843BD66C5BF13871F
:1013300087056316E500D843B7060F00C5B71387C6
:10134000C7066316E500D843B706F000C1BF138790
:101350000708E314E5FAD843B706000FC1B71841F0
:10136000E177BD0794517D8F9C45D58F9449D58FEA
:10137000D449D58F944DD58FD44DD58FD451D58F99
:101380009455D58FD98F1CC1DC455CC19C411CC5CF
:10139000DC415CC582801C4189C593E717001CC1F4
:1013A000828041677917F98FDDBF4CC18280B70712
:1013B00002409C437D8D3335A0008280B7070240F8
:1013C000C8C38280EFE2DFCDDD376FE01FCEB70705
:1013D0000240C8C382809C45611122C226C013F717
:1013E000070113F3F70001C7D8413363E3009221EB
:1013F0001377F60F29C783230500014713048002E2
:10140000930480048546B395E600B376B6006392F4
:10141000D50293122700BD46B396560093C6F6FF39
:10142000B3F37600B3125300B3E3720063978706F9
:101430004CC90507A146E317D7FC23207500130705
:10144000F00F6378C70483234500A146130480028C
:10145000930480040547B312D70033775600639492
:10146000E202139726000117BD45B395E50093C529
:10147000F5FFB3F375003317E300B36377006392AE
:101480008702232A550085064147E395E6FC23227F
:1014900075001244824421018280E39C97F80CC9B4
:1014A00049BFE39297FE23285500F1BF19C20CC92A
:1014B00082804CC982803703014003274300931781
:1014C000350063D00702B707C0FFF517F98F37075C
:1014D0000007D98FD9CD370700F07D17798DC98FD7
:1014E00049A8635D0500B707E0FFED17F98F3707DF
:1014F0000007D98FBDCD06050581D5B7B7073000E8
:10150000931605013376F500C1826313F6023706A0
:1015100000F97D16B377C70003274300798E232295
:10152000C300A1C95581131745003395E60045BF97
:101530009317B50063D407029357050113F6F7001C
:101540008D47B397C70093C7F7FFF98F3707000799
:10155000D98F85C1135755011207C1BF5581120597
:101560003395A6009347F5FFF98F37070007D98F0A
:10157000BDF5370701405CC3828023A6A198828015
:101580009387C1989443182181E63C21920721A8B2
:1015900094430546639FC6023C21103192076314B1
:1015A000D60093E707F8B7E600E093F7F70FBA968F
:1015B0002380F6408546935757003397E600544101
:1015C000A5C2938707048A07B7E600E0B69798C3D9
:1015D00082808C4389466391D50214313C21636536
:1015E000D6008A06B6975DB79386E6038A06B69755
:1015F00093F7F70F920775B790438D46631CD6009B
:1016000014313C216364D6008606E9BF9386C60781
:101610008606F1BF94439147E39EF6F81C31BDB7AF
:10162000938707064DB7B7160240DC424177130790
:10163000F77FF98F5D8DC8C28280EFE27FA63717F2
:1016400002405C4391462A84B18B6385D700A14652
:101650006388D706B7376E01938707601CC0B7163B
:101660000240DC42918313F7F700B707002093870D
:101670004703BA978C23DC42184093F5F50F93F794
:1016800007083355B70081E73A85EFE0BFA448C0AB
:1016900008C448C4B7170240DC438D46AD8313F736
:1016A000F701CD8B63F3F6005117B707002093873E
:1016B0000702BA978C23EFE0FFA108C86FE0FF9EF6
:1016C0005C43B777DC02938707C049BF99C53717DA
:1016D00002405C4B5D8D48CB8280B7170240D84BEF
:1016E0001345F5FF798DC8CB828099C53717024025
:1016F0001C4F5D8D08CF8280B7170240984F13456D
:10170000F5FF798D88CF828099C5371702405C4FED
:101710005D8D48CF8280B7170240D84F1345F5FF43
:10172000798DC8CF82801E2137370140130707C04B
:10173000C207C1836306E500370700406316E50072
:10174000BA2193F7F7F8D98FFA2193F7F7CFC207A9
:10175000C183D98F1EA1DE215EB59E211EB5B7378C
:101760000140938707C06314F5009C251EB9854787
:101770005EA982801E31922103D32500C207C18356
:10178000F99BC207C1831EB11E3156211A2DC20713
:10179000C183420741831377C7F8518F9225F59B88
:1017A000C20633666600D18F37360140130606C085
:1017B000C1826310C502B225DD9B03D3E500D18F42
:1017C000D221ED9B93F6F6CFD18FD22533666600FA
:1017D000D18E56A11AADFA2158D91EB182801E2190
:1017E00089C593E717001EA18280C207C183F99BB8
:1017F000C207C183CDBF8357450491C52167D98FE7
:101800002312F5048280C607C583DDBF5E2501C6AD
:10181000DD8D4EA5828093C5F5FFFD8DDDBF1E21B8
:1018200089C593E707081EA18280C207C18393F789
:10183000F7F7C207C183C5BF1E2DC207C183DD9B59
:10184000DD8D0EAD828093C5F5FFC205C1810EA965
:1018500082801E294A25ED8F4205418189C76D8D01
:101860003335A00082800145828093C5F5FFC20513
:10187000C1810EA98280EFE2BF821629F577FD179C
:10188000F58FF621DA252111D58F1EA95625FD7772
:101890009387379FF58FD6212A842EC0D58F962522
:1018A000D58FB625D58F5EA55E29C207C18393F774
:1018B000F7CF5D8F5AA948004933B7470140938756
:1018C000078082456312F406C2475A241395170015
:1018D0003E9542070E0541873E958C4163580704AB
:1018E0008605EFE02FFF930540062AC0EFE08FFE4C
:1018F000824793144500930540063E85EFE05F80E4
:101900005E24C207C18763D507020E059305400612
:1019100013052503EFE00FFC1D89C98CC204C180AB
:1019200006A461016FE06FF8B24745B78A0555BF5D
:1019300012059305400613052503EFE0AFF93D8935
:10194000E9BF91C55E250967D98F5EA582805A25BA
:10195000F977FD17F98FD5BF13F7F50F8547158375
:10196000B395B7006319F7009307C500984301CEFC
:10197000D98D8CC38280894693074501E318D7FE31
:1019800093070501E5B793C5F5FFF98DDDB75E292E
:1019900001C6DD8D4EA9828093C5F5FFFD8DDDBFAB
:1019A00093F5F51F4EA182804A211375F51F8280A1
:1019B0000A216D8D3335A000828013F7F50F85461F
:1019C0001583B397B6006311D7025A25F98F1A21F0
:1019D00001454207418381CB0545A181B315B5007F
:1019E0006D8F3335E000828089466314D7001A2951
:1019F000F1BF5A29E1BFEFE2AFEAB707002003A524
:101A0000C701B7157A0093850520EFE0AFEC137599
:101A1000F50F2389A19893175500898F8A073E9562
:101A20000E052398A1986FE04FE8EFE26FE737F4D7
:101A300000E05C40AA85F99B5CC003C52199EFE0FA
:101A40006FE708C8232404001C4093E717021CC05A
:101A5000B7F700E0D843058B75DF9843799B98C3AF
:101A60006FE0AFE4EFE2CFE37111AE840144635D58
:101A7000C402B7470140138707803A8593050004E5
:101A800032C03D37B747014013870780024675D5FE
:101A90003387840083050700138507800504C2058A
:101AA000C181FD3D0246E1B7328511016FE0EFDFF4
:101AB000411106C62EC00DCD1841AA8705C3584155
:101AC0007D5511CB8546631BD7009847230007003F
:101AD00023A207000545B240410182809847824613
:101AE00014A39847050798C7D8437D17D8C3DDB717
:101AF00005468A85853FF9BF011122CC2EC206CE4C
:101B000026CA2A848147930500026345060292454E
:101B1000BE95838505008DE563D8C70263D4E702CF
:101B2000198E1305000293F526002AC089C501E726
:101B3000930500032EC0858A814495EAB2840DA0E6
:101B40008507F1B71D8EF1BF0146E1BF82452285B1
:101B50003AC832C63EC4A93FA24732464247FD14A6
:101B6000E34690FEB284635306008144058E63C74A
:101B7000E702A6879246338797403697830507008A
:101B800095EDB28463449004635306000146F2402D
:101B90006244D2443305F600056182801D8FBA8706
:101BA00093050003228532C83EC63AC41137B247B6
:101BB00022474246FD17EDF7BA9465BF228532C62B
:101BC0003EC4FD35A247324685076DB78245228562
:101BD00032C43EC2F13DFD142246924765B73971C9
:101BE00006DE22DC26DA3EC232833A8689ED924650
:101BF0009307000301476C08FC86FD3DF2506254D8
:101C0000D25421618280AA843684AE8791CA294742
:101C100001446317E30063D50500B307B0400544F2
:101C20008646A309010213073103938666FC36C476
:101C30009A853E8532CA3AC81AC63EC0EFE04FCCFC
:101C4000A546824732434247524663D4A600A24685
:101C50003695130505039306F7FFA30FA7FE9A8594
:101C60003E8532CC3ACA1AC83EC636C0EFE08FC6AF
:101C7000B24742435247624663F9670401CC29CA1E
:101C80009247898BB1C79305D002268532C40D35A2
:101C900022467D169247918B95C3064793071006FF
:101CA00032C4930500032685631EF70211359305A0
:101CB00080072685F53B2246090479161647924689
:101CC00082452685153D229515BFAA8702478DB707
:101CD00082469307D0020144A38FF6FE9307E7FFE5
:101CE0003EC04DBFF13393058005E1B701458280C9
:101CF00001458280130181FD22D026CE06D22AC45E
:101D0000AE82328402C681448385020089EDA247F7
:101D100081C781453E85693B925002542685F24435
:101D2000130181028280930750026388F5002245E7
:101D300016C88504B53BC24239A8838712001387B1
:101D40001200639CB7002245930550023AC88D33B8
:101D500042478504BA82850245BFD5DB9306B002AF
:101D60006389D70463C8F600930630026386D704FC
:101D7000814705A09306D002638AD700930600032B
:101D8000E398D7FE13872200894721A013872200FA
:101D90008547830607001306B0026383C6046341C8
:101DA000D60213063002638BC602BA820145A546ED
:101DB00081A0138722006DBF138722009147D1BFF6
:101DC0001306D0026389C60013060003E39FC6FC16
:101DD00093E7270031A005078547C1BF93E7470078
:101DE0000507E1B713162500329506053A958502D9
:101DF00003860200130706FD9375F70FE3F4B6FEA2
:101E00001307E0029946631EE60085028146A54558
:101E100003860200130606FD1377F60F63F5E5024D
:101E200036C6038702001306A006630DC70A634384
:101E3000E6021306C0046307C70A13068006630C94
:101E4000C70881452DA813972600BA968606B29634
:101E500085027DBF130640076306C7081306A00767
:101E60006302C7081306C0068145631AC7000386CC
:101E700012008D456314E6008502914585020386B4
:101E80000200930300061307100663C4C300130780
:101E900010049303700663C4C3069303500663548F
:101EA00076189303700463C1C30493055004635C04
:101EB000B61613073004E310E6EA18409303440013
:101EC00016CA230CE1001EC8A30C01000147BE8600
:101ED0002A862C0849A8038612008145E311E6FAF8
:101EE000890271BF8502B1BF93063006E307D6FCB5
:101EF00063CFC606930680056303D602A9BD930689
:101F000030076304D60463CBC6029306F00663036E
:101F1000D60E9306000793E74700E31ED6E29146EC
:101F20006390D50C930384000C40504016CA3AC20B
:101F30003EC01EC8AA870147C14681A89306500724
:101F40006309D6069306800745BF1840B7260000F0
:101F5000930344009385C60911C3BA85324716CA54
:101F60001EC8BE862A862245EFF01FB90DA09146F5
:101F70006394D502930384000C40504016CA3AC2C1
:101F80003EC01EC8AA870547A94622458533C243DD
:101F9000AA941E84D242C1B3B2460C4016C836C2BF
:101FA0003AC011042A878546294622450D39AA944C
:101FB00059B39146639DD500930384000C40504073
:101FC00016CA3AC23EC01EC8AA87014775BFB246AC
:101FD0000C4016C836C23AC011042A878146E9B7B8
:101FE000B24616C80C40414636C23AC011042A8790
:101FF000814665BF9146639ED500930384000C40E3
:10200000504016CA3AC23EC01EC8AA870147A14620
:10201000ADBFB2460C4016C836C23AC011042A877A
:102020008146214659B70C401306840040403AC20D
:102030002A87224532C83EC02286B687A94616CADC
:102040004539AA944244B9B71301C1FD2EC832CA1A
:10205000AA851008014506C636CC3ACE3ED032C01D
:102060005139B2401301410282800000CE060000C7
:10207000DC060000E6060000F0060000F80600009E
:10208000280D0000360D0000560D0000640D000004
:102090006A0D0000700D00004F4B2100286E756C1A
:0420A0006C290000A7
:1020A4000F000000003E78A9CFE7F05501020304B9
:1020B400050607080102030405060708006CDC0294
:1020C4000204060804080C100810182010203040E0
:1020D400204060800102030405060708010203048E
:0820E4000506070800000000DA
:00000001FF
