:100000006F00102800000000F2010000F60100005F
:1000100000000000000000000000000000000000E0
:1000200000000000000000000000000000000000D0
:100030004E0A000000000000500A0000000000000E
:10004000520A0000540A0000560A0000580A000034
:100050005A0A00005C0A00005E0A0000600A000004
:10006000620A0000640A000036090000680A000005
:100070006A0A00006C0A00006E0A0000700A0000A4
:1000800002090000740A0000760A0000780A0000E5
:100090007A0A00007C0A0000CA0800000000000084
:1000A000511126C022C206C4828282441244A24058
:1000B000310182802A86014593F6150091C232955E
:1000C00085810606F5F9828000000000634E050276
:1000D00063C305042E86AA857D5515C285466378BF
:1000E000B6006356C00006068606E36CB6FE014500
:1000F00063E4C500918D558D85820582F5FA828075
:100100008682C93F2E8582823305A04063D70500D1
:10011000B305B040C1B7B305B0408682653F330533
:10012000A0408282868263C70500634905005D376F
:100130002E858282B305B040E35B05FE3305A04007
:10014000513F3305B040828200003D432A876373EC
:10015000C3029377F700BDEFADE5937606FF3D8AC6
:10016000BA960CC34CC30CC74CC74107E36BD7FE10
:1001700011E28280B306C3408A0697020000969679
:100180006780A6002307B700A306B7002306B700C1
:10019000A305B7002305B700A304B7002304B700E5
:1001A000A303B7002303B700A302B7002302B700DD
:1001B000A301B7002301B700A300B7002300B700D5
:1001C000828093F5F50F93968500D58D9396050162
:1001D000D58D61B793962700970200009696868288
:1001E000E78086FA9680C1171D8F3E96E374C3F8A8
:1001F000A5B77300203001A0EFF29FEA51118545A9
:10020000414502C002C202C4EF0070518D477C809C
:10021000C1473EC48A858D47371501403EC2EF0075
:10022000701F310159B5EFF2BFE731112E84AA8456
:100230008545054502C002C202C402C6231801005A
:10024000EF00D04F2C0037050040648660842317F0
:10025000010023150100EF0050508545370500408F
:10026000EF00B061930760027C8085475C810A855E
:1002700085473EC2EF005035854537050040EF0009
:1002800010620546854537050040EF00705B054666
:10029000854537050040EF00B05A510139B5EFF2FE
:1002A0003FE01165111185451305050202C002C228
:1002B00002C402C602C802CA02CCEF00504693072D
:1002C00000027C80371401408D473EC28A85E14799
:1002D000130504403EC4EF00F013930700047C8034
:1002E0008A859147130504403EC4EF00B012F167C0
:1002F00037440140938707203EC66C00B7070C00C7
:10030000130504803ECA02C8231C0100EF00F05907
:1003100005461305048093055052EF0030673705FA
:100320000240854513058505EF00700A85451305D4
:100330000480EF00506471018DBBEFF27FD6130192
:10034000C1FC1306C00281452800013585450545DD
:100350003704024002C002C2EF00903A1305840540
:10036000EF00407AB7470140938747803EC49387A8
:10037000818B3EC6A9473ECA930700082C003ECE9B
:10038000130584058D673ED602C802CC02D002D286
:1003900002D402D8EF003000E9477C8085475C81B9
:1003A0000A8585473EC2EF00302205468945130580
:1003B0008405EF00100313014103C5B9EFF25FCECE
:1003C000130141FD2AC005652E841305158185455D
:1003D000B28402C802CA02CC02CE02D002D202D437
:1003E00002C202C423160100EF0070333705160065
:1003F000854513050504EF00901013070004F880ED
:1004000061473ACC0C080D47371501403ACAEF0056
:10041000700005469305000437150140EF00900D6C
:100420002945EF0050660146930500043715014049
:10043000EF00500C2945EF00106582476082373489
:1004400001404C00130504C07C84231501002313D4
:100450000100EF009030C167938707073ECEB707D2
:10046000080089073ED26C0893070010130504C0EA
:100470003ED423119102EF0030330546130504C02A
:100480008545EF00F03B130504C08545EF00F039CA
:10049000130504C0A145EF00703D130504C0854558
:1004A000EF00303B8545130504C0EF009036130183
:1004B000C102E5BE214737360140C1451303C002E2
:1004C000930706C0962B858AE5DE93168501E186A3
:1004D00063D5060223AA6702835706C17D17060566
:1004E000C207C183F99BC207C1832318F6C01377E3
:1004F000F70F1375F50F69F78280CCDBF1BFEFF2D0
:100500003FBAB716014093070004DCCA9C42370784
:1005100000F87D17F98F9CC289672A84938707802A
:100520007390073037360140835786C1370700087C
:10053000B304B500C207C183DD9BC207C183231C7E
:10054000F6C0232A06C2835786C193E78700231C7F
:10055000F6C085472312F6C2835706C093E71700FB
:100560002310F6C09C42D98F9CC263109406B73604
:10057000014003D706C1058B6DDF03D706C1B7174E
:10058000014042074183799B420741832398E6C09B
:1005900003D706C042074183799B420741832390DA
:1005A000E6C023AA06C205472392E6C21307000449
:1005B000D8CB9843B70600F8FD16758F98C38967A6
:1005C0009387878873900730CDB408200504DD3504
:1005D00069BFEFF2FFAC31112AC232846388050C87
:1005E000AE849305B00236C8F5349377F50F3EC05C
:1005F0009307F00F33859740A2856D3C2185937753
:10060000F50F0245930550FD3EC66D3412473A95ED
:10061000131715002A9706071377F70FBA85268553
:100620003AC4493C9307F00F21853385A740A28542
:1006300051342247A68521859304F00F1373F50FDB
:100640003385E4401AC2BD342185A2853385A44098
:1006500095348247218591451387F7FF1377F70F6C
:100660001375F50FB247C24663ECE50085650A07CE
:100670009385052C2E9718431243028722851A84EE
:1006800080A288B2BCA251010DB422873E84AA8701
:100690003A85FDB722871A853E84BA87D5B7228767
:1006A0002A843E85DDBF3E859A87D9BFB2873285D1
:1006B000C1BFEFF2FF9E9387C18983867701130143
:1006C000C1FA36C0D4231387C18982C236C2838659
:1006D000570082C482C636C48386C7001384418C07
:1006E0003AD436C68386370136C88386A70136CA10
:1006F0008386670036CC8386D70036CE8386470153
:100700008387B70136D03ED2B707002093874704CE
:10071000A254D4000387040001450DCB8385270034
:10072000038724000386370036DC998D0387340065
:100730002E853EDA198E32D8B53A42562AD6B2857F
:1007400032858D3A3257E256D2573A9588C29D0487
:100750001387118B9106E39FE4FA83851700BEC0CF
:1007600082470D04B385B7402E85A93296422643B1
:1007700036469247B3846200A245B294A30EF4FEBB
:10078000AA942AD8168516DE32DA1ADC253262538C
:10079000B2452AD61A85393A52563257C2452A9757
:1007A00032853AD6013AC2563257D2452A97368513
:1007B0003AD6EFF03F903257A6853A95013AF25279
:1007C000E245230FA4FE1685EFF0DF8E6253F2455B
:1007D0002AD61A85EFF01F8E5256325782552A9725
:1007E00032853AD6EFF01F8DC256325792552A976E
:1007F00036853AD6EFF01F8C3257A6853A95EFF042
:10080000FF8C8647A30FA4FE95071387A189E39168
:10081000E7F0130141056FF05F89EFF27F881384E1
:10082000418C81449387019230200C300820B3869C
:1008300097008D04793B1307A0050D04938701925F
:10084000E394E4FE6FF07F86EFF29F850545952BDC
:100850007922EF00701C4D32B1659385F5B73D45A7
:10086000D932854537050040EF00A07AF934053CC0
:100870003745014005469305000413050580EF0048
:100880005014014681451305A0030D3EB704002016
:1008900013840404182085476315F702054689452B
:1008A00037150140812931358D3F9305A00513850A
:1008B0000192B131014689453715014025292300B0
:1008C00004000545EF009018E1B785453705004065
:1008D000EF00607B0DC5894537150140392113367E
:1008E00015008945371501403121B707002005471C
:1008F0008545370500402380E704EF00407A730008
:100900002030711122C03744014093055052130525
:100910000480EF00B00C01CD13050480EF00900BB4
:10092000B70700202380A70005472381E18C0244FC
:1009300011017300203037050200E12419C5054775
:10094000370502002381E18CD12473002030B717D2
:1009500002409843B706FFFC1367170098C3D843BB
:10096000758FD8C39843B706F7FEFD16758F98C3E9
:100970009843B706FCFFFD16758F98C3D4434177A3
:100980007D17F98ED4C3B7069F0094C7B7260240DF
:100990009042719A90C290421366160090C2D4435E
:1009A000D4C3D443758FD8C3D843B7060001D8C386
:1009B0009843558F98C3984393166700E3DD06FE6E
:1009C000D843B7160240719BD8C3D843136727009A
:1009D000D8C32147DC42B18BE39EE7FE8280EFF271
:1009E0002FEC371702405C43370400209146B18B4F
:1009F000130444016385D700A1466382D704B73747
:100A00006E01938707601CC0B7160240DC420840A5
:100A1000918313F7F700B707002093874700BA9731
:100A20008C23DC4293F5F50F93F707083357B50095
:100A300081E7EFF02FEA2A8718C06FF00FE75C43D9
:100A4000B777DC02938707C07DBF01A001A001A09A
:100A500001A001A001A001A001A001A001A001A08E
:100A600001A001A001A001A001A001A001A001A07E
:100A700001A001A001A001A001A001A001A001A06E
:100A800097010020938101DC138101FC1715000000
:100A90001305858497F5FF1F9385C55617F6FF1F2D
:100AA0001306465A63FAC5008322050023A05500A9
:100AB00011059105E3EAC5FE17F5FF1F13058558DB
:100AC000938541986377B500232005001105E36DF8
:100AD000B5FE93020008739002308D4273904280FD
:100AE00097F2FFFF9382025293E2320073905230EA
:100AF000EFF0FFE597020000938242D57390123425
:100B0000730020301C4141677917F98F1CC12320E5
:100B100005002322050023240500B70702402326F1
:100B20000500138787006317E500D8431367F700B4
:100B3000D8C382801387C7016316E500D8431367C3
:100B4000070FFDB7138707036318E500D8438566D1
:100B5000938606F0558FE9BF138747046315E500B8
:100B6000D843BD66C5BF138787056316E500D84324
:100B7000B7060F00C5B71387C7066316E500D8434D
:100B8000B706F000C1BF13870708E314E5FAD8439E
:100B9000B706000FC1B71841E177BD0794517D8FAB
:100BA0009C45D58F9449D58FD449D58F944DD58FF9
:100BB000D44DD58FD451D58F9455D58FD98F1CC195
:100BC000DC455CC19C411CC5DC415CC582801C418C
:100BD00089C593E717001CC1828041677917F98F97
:100BE000DDBF1C4101C6DD8D0CC1828093C5F5FFC0
:100BF000FD8DDDBFB70702409C437D8D3335A000DE
:100C00008280EFF2EFC9FD376FF02FCAB7070240BD
:100C1000C8C382809C45611122C226C013F7070118
:100C200013F3F70001C7D8413363E3009221137730
:100C3000F60F29C78323050001471304800293049C
:100C400080048546B395E600B376B6006392D5027C
:100C500093122700BD46B396560093C6F6FFB3F332
:100C60007600B3125300B3E37200639787064CC952
:100C70000507A146E317D7FC232075001307F00FE3
:100C80006378C70483234500A146130480029304BC
:100C900080040547B312D700337756006394E2020D
:100CA000139726000117BD45B395E50093C5F5FFE1
:100CB000B3F375003317E300B363770063928702E1
:100CC000232A550085064147E395E6FC232275005B
:100CD0001244824421018280E39C97F80CC949BFE9
:100CE000E39297FE23285500F1BF08456D8D3335FB
:100CF000A000828019C20CC982804CC9828037034F
:100D00000140032743009317350063D00702B7075C
:100D1000C0FFF517F98F37070007D98FD9CD3707EF
:100D200000F07D17798DC98F49A8635D0500B7076D
:100D3000E0FFED17F98F37070007D98FBDCD060506
:100D40000581D5B7B7073000931605013376F50056
:100D5000C1826313F602370600F97D16B377C70028
:100D600003274300798E2322C300A1C9558113179D
:100D700045003395E60045BF9317B50063D40702DD
:100D80009357050113F6F7008D47B397C70093C734
:100D9000F7FFF98F37070007D98F85C11357550122
:100DA0001207C1BF558112053395A6009347F5FF81
:100DB000F98F37070007D98FBDF5370701405CC3AE
:100DC000828023AEA19682809387C1979443182195
:100DD00081E63C21920721A894430546639FC60201
:100DE0003C21103192076314D60093E707F8B7E669
:100DF00000E093F7F70FBA962380F64085469357A5
:100E000057003397E6005441A5C2938707048A0729
:100E1000B7E600E0B69798C382808C438946639119
:100E2000D50214313C216365D6008A06B6975DB7BA
:100E30009386E6038A06B69793F7F70F920775B77E
:100E400090438D46631CD60014313C216364D60068
:100E50008606E9BF9386C6078606F1BF944391478D
:100E6000E39EF6F81C31BDB7938707064DB7EFF246
:100E70002FA3371702405C4391462A84B18B6385C8
:100E8000D700A1466388D706B7376E0193870760FE
:100E90001CC0B7160240DC42918313F7F700B70776
:100EA00000209387C702BA978C23DC42184093F541
:100EB000F50F93F707083355B70081E73A85EFF050
:100EC0006FA148C008C448C4B7170240DC438D4630
:100ED000AD8313F7F701CD8B63F3F6005117B70716
:100EE000002093878701BA978C23EFF0AF9E08C844
:100EF0006FF0AF9B5C43B777DC02938707C049BFB5
:100F000099C5371702405C4B5D8D48CB8280B7177F
:100F10000240D84B1345F5FF798DC8CB828099C527
:100F2000371702401C4F5D8D08CF8280B7170240F3
:100F3000984F1345F5FF798D88CF828099C5371773
:100F400002405C4F5D8D48CF8280B7170240D84F7A
:100F50001345F5FF798DC8CF82801E2137370140B8
:100F6000130707C0C207C1836306E50037070040C7
:100F70006316E500BA2193F7F7F8D98FFA2193F7B2
:100F8000F7CFC207C183D98F1EA1DE215EB59E2196
:100F90001EB5B7370140938707C06314F5009C2541
:100FA0001EB985475EA982801E31922103D3250098
:100FB000C207C183F99BC207C1831EB11E315621EE
:100FC0001A2DC207C183420741831377C7F8518F97
:100FD0009225F59BC20633666600D18F37360140F5
:100FE000130606C0C1826310C502B225DD9B03D380
:100FF000E500D18FD221ED9B93F6F6CFD18FD2258C
:1010000033666600D18E56A11AADFA2158D91EB1A9
:1010100082801E2189C593E717001EA18280C20726
:10102000C183F99BC207C183CDBF8357450491C5D6
:101030002167D98F2312F5048280C607C583DDBFDF
:101040005E2501C6DD8D4EA5828093C5F5FFFD8D21
:10105000DDBF1E2189C593E707081EA18280C20754
:10106000C18393F7F7F7C207C183C5BF1E2DC2071F
:10107000C183DD9BDD8D0EAD828093C5F5FFC2057A
:10108000C1810EA982801E294A25ED8F420541812A
:1010900089C76D8D3335A00082800145828093C55C
:1010A000F5FFC205C1810EA98280EFE27FFF1629FC
:1010B000F577FD17F58FF621DA252111D58F1EA9B9
:1010C0005625FD779387379FF58FD6212A842EC02A
:1010D000D58F9625D58FB625D58F5EA55E29C207FB
:1010E000C18393F7F7CF5D8F5AA948004933B747BB
:1010F00001409387078082456312F406C2475A2451
:10110000139517003E9542070E0541873E958C4189
:10111000635807048605EFE0FFFB930540062AC0ED
:10112000EFE05FFB824793144500930540063E8540
:10113000EFE01FFD5E24C207C18763D507020E05DD
:101140009305400613052503EFE0DFF81D89C98CE0
:10115000C204C18006A461016FE03FF5B24745B704
:101160008A0555BF12059305400613052503EFE0D8
:101170007FF63D89E9BF91C55E250967D98F5EA5D8
:1011800082805A25F977FD17F98FD5BF13F7F50F30
:1011900085471583B395B7006319F7009307C5001A
:1011A000984301CED98D8CC382808946930745012F
:1011B000E318D7FE93070501E5B793C5F5FFF98D51
:1011C000DDB75E2901C6DD8D4EA9828093C5F5FF8E
:1011D000FD8DDDBF4A211375F51F828013F7F50FD2
:1011E00085461583B397B6006311D7025A25F98F48
:1011F0001A2101454207418381CB0545A181B315E1
:10120000B5006D8F3335E000828089466314D700C6
:101210001A29F1BF5A29E1BFEFE29FE8B707002082
:1012200003A54701B7157A0093850520EFE09FEAF3
:101230001375F50F2381A19893175500898F8A079D
:101240003E950E052390A1986FE03FE6EFE25FE543
:1012500037F400E05C40AA85F99B5CC003C5219887
:10126000EFE05FE508C8232404001C4093E7170261
:101270001CC0B7F700E0D843058B75DF9843799B16
:1012800098C36FE09FE2EFE2BFE137F400E05C401B
:10129000AA85F99B5CC003D50198EFE0BFE108C8BF
:1012A000232404001C4093E717021CC0B7F700E09A
:1012B000D843058B75DF9843799B98C36FE0FFDEB9
:1012C0007C0600008A060000940600009E060000CE
:0412D000A60600006E
:1012D4005500000001020304050607080102030487
:1012E40005060708006CDC020204060804080C105A
:1012F40008101820102030402040608001020304B0
:10130400050607080102030405060708000000009B
:00000001FF
